{
  "contractName": "Faucet",
  "abi": [
    {
      "stateMutability": "payable",
      "type": "receive",
      "payable": true
    },
    {
      "inputs": [],
      "name": "addFunds",
      "outputs": [],
      "stateMutability": "payable",
      "type": "function",
      "payable": true
    }
  ],
  "bytecode": "0x6080604052348015600f57600080fd5b50606a80601d6000396000f3fe608060405260043610601f5760003560e01c8063a26759cb14602a576025565b36602557005b600080fd5b60306032565b005b56fea2646970667358221220f6f8d0e9596329708cec04d0a4fa4bd7708101f68a10008d409a325f2f910d3664736f6c634300080d0033",
  "immutableReferences": {},
  "source": "// SPDX-License-Identifier: MIT\npragma solidity >=0.4.22 <0.9.0;\n\ncontract Faucet {\n  receive() external payable {}\n  function addFunds() external payable {}\n}\n",
  "sourcePath": "/home/paulo/Documents/Projetos/web3/faucet-example/contracts/Faucet.sol",
  "compiler": {
    "name": "solc",
    "version": "0.8.13+commit.abaa5c0e.Emscripten.clang"
  },
  "schemaVersion": "3.4.6",
  "updatedAt": "2022-04-10T01:30:48.742Z",
  "networkType": "ethereum",
  "devdoc": {
    "kind": "dev",
    "methods": {},
    "version": 1
  },
  "userdoc": {
    "kind": "user",
    "methods": {},
    "version": 1
  }
}